:10000000A6C00000CCC00000CAC00000C8C00000EC
:10001000C6C00000C4C00000C2C00000C0C00000D4
:10002000BEC00000BCC00000BAC000000C94311D6E
:10003000B6C00000B4C00000B2C00000B0C00000F4
:100040000C943309ACC000000C945C080C948E082E
:10005000A6C00000A4C00000A2C00000A0C0000014
:100060009EC000009CC00000036EDB363D9A99994B
:10007000993DABAAAA2A3E000000803F084AD73B20
:100080003BCE016E84BCBFFDC12F3D6C74319ABD67
:1000900056833DDA3D00C77F11BED9E4BB4C3E918B
:1000A0006BAAAABE000000803F072C7AA5BA6CC5D7
:1000B00090DA3B9365FC8BBC53F810FD3C56928361
:1000C0004DBD879D3AB63DCBC9BF5BBE73DA0FC944
:1000D0003F05A84CCDB2D44EB93836A9020C50B960
:1000E000918688083CA6AAAA2ABE000000803F008C
:1000F00000000008000201000003040700000000E7
:1001000000000000010204081020408001020408E1
:100110001020010204081020040404040404040450
:1001200002020202020203030303030300000000B1
:1001300023002600290000000000250028002B00D5
:1001400000000000240027002A00BC082D1D1124F7
:100150001FBECFEFD8E0DEBFCDBF11E0A0E0B1E021
:10016000ECE0F7E402C005900D92A631B107D9F793
:1001700022E0A6E1B1E001C01D92A335B207E1F78C
:1001800011E0CEE4D1E004C02297FE010E94FB1FE3
:10019000CA34D107C9F70E9428090C94842330CFB0
:1001A000DC01ED91FC910190F081E02D0994EF923A
:1001B000FF920F931F93CF93DF931F92CDB7DEB7BC
:1001C0007C01FC0100811181C80169830E946E23BA
:1001D0006981681719F0C8010E947623C7010F9042
:1001E000DF91CF911F910F91FF90EF90089526E03E
:1001F00040E051EE60E070E089E591E0FBD68FEFE2
:1002000091E00C946E0FCF93DF93EC01BC016F77FC
:10021000772789E591E0C4DFBE01660F672F661F6F
:10022000770B6F77772789E591E0DF91CF91B8CF92
:100230004F925F926F927F928F929F92AF92BF92F6
:10024000CF92DF92EF92FF92CF934B015C010E941D
:100250002F216B017C01882777FD8095982F0E94C4
:1002600062219B01AC01C501B4010E941C2020E069
:1002700030E048EC52E40E94A7222B013C0120E030
:1002800030E0A9010E949C2220E030E040E05FE3E2
:1002900087FD05C0C301B2010E941D2004C0C30137
:1002A000B2010E941C200E942F21762E672EC1E0F1
:1002B00020E030E0A901C501B4010E949C2218167B
:1002C0000CF0C0E061E06C2770E089E591E068DF48
:1002D0005601D7FE04C0AA24BB24AC18BD08B50142
:1002E0006F77772789E591E05BDFB501660F672FB0
:1002F000661F770B6F77772789E591E051DF672DD0
:10030000762D77FF03C07195619571096F77772717
:1003100089E591E0CF91FF90EF90DF90CF90BF9073
:10032000AF909F908F907F906F905F904F9038CF5D
:100330008F929F92AF92BF92CF92DF92EF92FF92F5
:100340004B015C010E942F216B017C01882777FD06
:100350008095982F0E9462219B01AC01C501B401D8
:100360000E941C2020E030E048EC52E40E94A722CA
:100370004B015C0120E030E0A9010E949C2220E0BA
:1003800030E040E05FE387FD05C0C501B4010E9495
:100390001D2004C0C501B4010E941C200E942F2111
:1003A0004B015601D7FE04C0AA24BB24AC18BD08DB
:1003B000B5016F77772789E591E0F2DEB501660F29
:1003C000672F661F770B6F77772789E591E0E8DE67
:1003D000B40197FE03C07195619571096F77772716
:1003E00089E591E0FF90EF90DF90CF90BF90AF90C4
:1003F0009F908F90D5CECF93DF93EC0161E070E0BA
:100400001816190614F460E070E089E591E0C8DE82
:10041000D7FF03C0D195C195D109BE016F7777276A
:1004200089E591E0BDDEBE01660F672F661F770B81
:100430006F77772789E591E0DF91CF91B1CE2F9249
:100440003F924F925F926F927F928F929F92AF9264
:10045000BF92CF92DF92EF92FF920F931F93CF93B1
:10046000DF93CDB7DEB763970FB6F894DEBF0FBE4C
:10047000CDBF1A018A3A09F083C4DA018C91803128
:1004800001F511961C91119741E012968C91811102
:1004900001C040E060EF70E089E591E04A8B80DECA
:1004A0006AEA70E089E591E07BDE612F89E591E001
:1004B0003DD54A89612F8FEF91E00E94240E38DFED
:1004C000B6C18131B9F501E0FA018581811101C020
:1004D00000E0D10112968C91129713966C91B0E8BE
:1004E0006B9FB0011124680F711D882777FD8095DF
:1004F000982F0E9462216B017C01F101648170E000
:1005000080E090E00E94602120E030E048EC52E47E
:100510000E94C7209B01AC01C701B6010E941D20AB
:100520009B01AC01D10111966C918FEF91E00E947B
:10053000E60B24C4823191F560EF70E089E591E02B
:100540002FDE6AEA70E089E591E02ADE62E170E080
:1005500089E591E025DE8FEF91E00E947C1280908A
:10056000150290901602A0901702B0901802C09049
:100570001902D0901A02E0901B02F0901C026091C8
:10058000110270911202809113029091140250DEB8
:10059000C501B4014DDEC701B60105C2833109F0C2
:1005A00026C1FA0182816381F0E86F9FB0011124B6
:1005B000680F711D882777FD8095982F0E94622112
:1005C0006B017C01D10114966C9170E080E090E0A9
:1005D0000E94602120E030E048EC52E40E94C720F5
:1005E0009B01AC01C701B6010E941D206F83788773
:1005F00089879A87F1018181813049F48F819885BB
:10060000A985BA85B0588F839887A987BA87D10101
:1006100016968C91169717966C91B0E86B9FB00167
:100620001124680F711D882777FD8095982F0E94EF
:1006300062216B017C01F101608570E080E090E057
:100640000E94602120E030E048EC52E40E94C72084
:100650009B01AC01C701B6010E941D202B013C018A
:10066000D10115968C91813021F477FA709477F846
:100670007094F10182856385F0E86F9FB0011124C9
:10068000680F711D882777FD8095982F0E94622141
:100690006B017C01D1011C966C9170E080E090E0D0
:1006A0000E94602120E030E048EC52E40E94C72024
:1006B0009B01AC01C701B6010E941D206B017C01AA
:1006C000F1018185813021F4F7FAF094F7F8F09484
:1006D000D1011D968C911D971E966C91B0E86B9F71
:1006E000B0011124680F711D882777FD8095982F20
:1006F0000E9462214B015C01F101678570E080E09E
:1007000090E00E94602120E030E048EC52E40E943A
:10071000C7209B01AC01C501B4010E941D204B0103
:100720005C01D1015096BC91BF87F101818962893A
:10073000F0E86F9FB0011124680F711D882777FDC5
:100740008095982F0E9462216B877C878D879E877A
:10075000D10153966C9170E080E090E00E9460219E
:1007600020E030E048EC52E40E94C7209B01AC013D
:100770006B857C858D859E850E941D20362F472F99
:10078000582F9B87F101248905891689123010F4AE
:10079000117001C010E065E070E080E090E02B8B0C
:1007A000388B4A8B598BCCD51F930F932B892F9362
:1007B000FB85FF9359895F934A894F9338893F930B
:1007C0008F858F93930182014F81588569857A8542
:1007D0008FEF91E00E94DE186AE070E080E090E028
:1007E000AFD50FB6F894DEBF0FBECDBFC9C28431FE
:1007F00021F5FA011181028160EF70E089E591E055
:10080000CFDC6AEA70E089E591E0CADC612F89E516
:1008100091E08CD3013011F462E001C060E0812FDF
:10082000A4D6812F10D7BC0189E591E0B9DC67EF30
:1008300070E089E591E0B4DCA1C2853181F4DA0190
:1008400011961C9161E0812F90D6F1018281813057
:1008500011F461E001C060E0812FC0D68FC2863103
:10086000A1F4DA0111961C9160EF70E089E591E046
:1008700097DC6AEA70E089E591E092DC612F89E516
:1008800091E054D3812FCED561C08731A1F5FA0113
:10089000B18061E08B2D69D6D10112968C911297AF
:1008A00013960C91B0E80B9F80011124080F111DC5
:1008B000B801882777FD8095982F0E9462216B01EF
:1008C0007C0120E030E0A9010E94C02087FD0CC01F
:1008D00020E030E04FE753E4C701B6010E949C22BC
:1008E00018162CF46FEF01C060E070E001C0B80191
:1008F0008B2DB5D543C28A3109F057C0FA01218149
:1009000082810381F0E80F9F80011124080F111DDF
:1009100060EF70E089E591E02B8B42DC6AEA70E0E1
:1009200089E591E03DDC6AE170E089E591E038DC41
:10093000C80169DC2B89223059F02430C1F0213004
:1009400009F075CFC8010E946E2390E05CDC6FCF88
:100950001A821982C8010E946E238983C8010196F8
:100960000E946E238A8389819A8145DD60CF198236
:100970001A821B821C826E0185E0C80ED11CDE012A
:1009800011967D010A1B1B0BC8018E0D9F1D0E9435
:100990006E23F70181937F01EC15FD05A9F76981AD
:1009A0007A818B819C8144DC42CF8B3109F085C0F8
:1009B000DA0113968C91139712961C91B0E88B9FD5
:1009C00010191124FA018181823071F0843069F1AB
:1009D000813009F0D3C185816481F0E88F9F60196F
:1009E0001124812F90E079C185816681B0E86B9FE9
:1009F000B0011124680F711DFA018481813019F44E
:100A00007195619571097E836D83012F10E01A83C2
:100A10000983CE010196CBDB6E810F5F1F4F1A83D6
:100A20000983CE010196C3DBA9C185816681B0E847
:100A30006B9FB0011124680F711D882777FD809589
:100A4000982F0E9462216B017C01F101678170E0A7
:100A500080E090E00E94602120E030E048EC52E429
:100A60000E94C7209B01AC01C701B6010E941D2056
:100A7000D10114962C91AB01BC01213009F47058BE
:100A800049835A836B837C836E01B5E0CB0ED11C06
:100A9000FE0131967F01012F10E00E1B1F0BC801D4
:100AA0008E0D9F1DD7016D917D019E838D83C601A3
:100AB0007EDBEC14FD0499F761C18C3171F461E0C7
:100AC000FA018281811101C060E0D10111964C913F
:100AD0008FEF91E00E94750E51C18D3171F4FA01D2
:100AE0008181813029F48FEF91E00E94031D46C17E
:100AF0008FEF91E00E94131D41C1803279F4DA0139
:100B000011968C91813029F48FEF91E00E94E11CC5
:100B100035C18FEF91E00E94F11C30C18E3109F098
:100B200065C0FA0182816381F0E86F9FB0011124F2
:100B3000680F711D882777FD8095982F0E9462218C
:100B40006B017C01D10114966C9170E080E090E023
:100B50000E94602120E030E048EC52E40E94C7206F
:100B60009B01AC01C701B6010E941D206B017C01F5
:100B7000F1018181813021F4F7FAF094F7F8F094D3
:100B8000D10116968C91169717966C91B0E86B9FD1
:100B9000B0011124680F711D882777FD8095982F6B
:100BA0000E9462214B015C01F101608570E080E0F0
:100BB00090E00E94602120E030E048EC52E40E9486
:100BC000C7209B01AC01C501B4010E941D208B010F
:100BD0009C01D10115968C91813009F43058B701F0
:100BE000A6018FEF91E00E948E0FC8C08F3109F0EF
:100BF0005FC011E0FA018781811101C010E0D101CD
:100C000014968C91149715966C91B0E86B9FB00177
:100C10001124680F711D882777FD8095982F0E94F9
:100C200062216B017C01F101668170E080E090E05F
:100C30000E94602120E030E048EC52E40E94C7208E
:100C40009B01AC01C701B6010E941D204B015C0154
:100C5000D10111968C91119712966C91B0E86B9F0F
:100C6000B0011124680F711D882777FD8095982F9A
:100C70000E9462216B017C01F101638170E080E0E0
:100C800090E00E94602120E030E048EC52E40E94B5
:100C9000C7209B01AC01C701B6010E941D20AB011A
:100CA000BC01E12E950184018FEF91E0BFD666C0B3
:100CB0008232B1F4FFEF2F1A3F0A05E610E0D101AE
:100CC0006D911D01C8010E9476230F5F1F4F0337EE
:100CD0001105A9F760E884E690E00E9476234EC0F3
:100CE000813229F560EF70E089E591E059DA6AEA2E
:100CF00070E089E591E054DA84E690E00E946E238A
:100D0000803809F094CD61E270E089E591E048DA3D
:100D100005E610E0C8010E946E23682F89E591E086
:100D200005D10F5F1F4F03371105A1F780CD833227
:100D3000E1F460EF70E089E591E032DA6AEA70E0B0
:100D400089E591E02DDA63E270E089E591E028DA47
:100D500061E070E089E591E023DA67E070E089E521
:100D600091E01EDA64E070E05FCD843249F4FA016C
:100D70002381428161818FEF91E0D3D481E001C072
:100D800080E063960FB6F894DEBF0FBECDBFDF9153
:100D9000CF911F910F91FF90EF90DF90CF90BF9078
:100DA000AF909F908F907F906F905F904F903F900B
:100DB0002F90089560911601615049E151E08091B2
:100DC00018013DCB909158019923A1F0873F19F468
:100DD00010925801EFCF2091160130911701F901BF
:100DE000E85EFE4F80832F5F3F4F309317012093C3
:100DF00016010895803F08F4807F90E0803F9105C0
:100E000039F481E080935801109217011092160175
:100E1000089589E591E027D08F3F2FEF920709F0E1
:100E2000D1CF089589E591E005D0892B11F0F1DF4C
:100E3000F9CF0895FC01818D228D90E0805C9F4F59
:100E4000821B91098F7399270895FC01918D828DE2
:100E5000981731F0828DE80FF11D858D90E008958F
:100E60008FEF9FEF0895FC01918D828D981761F0AF
:100E7000828DDF01A80FB11D5D968C91928D9F5FD1
:100E80009F73928F90E008958FEF9FEF089583EB0B
:100E900098E0892B41F080E090E0892B21F063D12C
:100EA00081110C9400000895FC01848DDF01A80FCE
:100EB000B11DA35ABF4F2C91848D90E001968F7382
:100EC0009927848FA689B7892C93A089B1898C91A1
:100ED00080648C93938D848D981306C00288F38967
:100EE000E02D80818F7D80830895CF93DF93EC0187
:100EF000888D8823C1F0EA89FB89808185FD05C042
:100F0000A889B9898C9186FD0EC00FB607FCF5CF74
:100F1000808185FFF2CFA889B9898C9185FFEDCFBB
:100F2000CE01C2DFE8CFDF91CF910895CF92DF925B
:100F3000FF920F931F93CF93DF931F92CDB7DEB72E
:100F40006C0181E0D60158968C9358975B969C91E2
:100F50005B975C968C915C97981307C05096ED91C7
:100F6000FC915197808185FD2DC0F601038D10E025
:100F70000F5F1F4F0F731127F02EF601848DF812AB
:100F800010C00FB607FCF9CFD6015096ED91FC9139
:100F90005197808185FFF1CFC601698385DF698123
:100FA000ECCF838DE80FF11DE35AFF4F6083D6012C
:100FB0005B960C935B975296ED91FC9153978081D1
:100FC00080620CC0D6015696ED91FC9157976083D4
:100FD0005096ED91FC91519780818064808381E0EF
:100FE00090E00F90DF91CF911F910F91FF90DF90D4
:100FF000CF900895BF92CF92DF92EF92FF92CF935E
:10100000DF93EC016A017B01B22EE889F98982E065
:101010008083411581EE580761057105A1F060E0FC
:1010200079E08DE390E0A70196010E94B11F215065
:10103000310941095109569547953795279521154D
:1010400080E1380798F0E889F989108260E874E84F
:101050008EE190E0A70196010E94B11F2150310955
:10106000410951095695479537952795EC85FD859A
:101070003083EE85FF852083188EEC89FD89B08250
:10108000EA89FB89808180618083EA89FB8980818C
:1010900088608083EA89FB89808180688083EA890F
:1010A000FB8980818F7D8083DF91CF91FF90EF90CE
:1010B000DF90CF90BF9008951F920F920FB60F92BE
:1010C00011242F938F939F93EF93FF93E0916901E6
:1010D000F0916A018081E0916F01F091700182FDD1
:1010E00012C09081809172018F5F8F732091730184
:1010F000821751F0E0917201F0E0E75AFE4F958FB0
:101100008093720101C08081FF91EF919F918F9137
:101110002F910F900FBE0F901F9018951F920F9256
:101120000FB60F9211242F933F934F935F936F93BA
:101130007F938F939F93AF93BF93EF93FF9389E533
:1011400091E0B2DEFF91EF91BF91AF919F918F91AE
:101150007F916F915F914F913F912F910F900FBEB3
:101160000F901F90189589E591E064DE21E0892BAE
:1011700009F420E0822F089510925C0110925B0127
:1011800088EE93E0A0E0B0E080935D0190935E0173
:10119000A0935F01B093600189E091E090935A01C0
:1011A0008093590185EC90E09093660180936501EE
:1011B00084EC90E0909368018093670180EC90E06C
:1011C00090936A018093690181EC90E090936C01A7
:1011D00080936B0182EC90E090936E0180936D019F
:1011E00086EC90E09093700180936F0110927201F1
:1011F0001092730110927401109275010895CF92AC
:10120000DF92EF92FF920F931F93CF93DF937C01B6
:101210006A01EB0100E010E00C151D0571F0699109
:10122000D701ED91FC910190F081E02DC701099566
:10123000892B19F00F5F1F4FEFCFC801DF91CF91BE
:101240001F910F91FF90EF90DF90CF900895089538
:10125000AED0FDDF0E94F700C7E4D7E0E3DD2097C2
:10126000E9F315DEFBCF1F920F920FB60F921124F8
:101270002F933F938F939F93AF93BF938091F701E9
:101280009091F801A091F901B091FA013091F60125
:1012900023E0230F2D3720F40196A11DB11D05C0B9
:1012A00026E8230F0296A11DB11D2093F60180931D
:1012B000F7019093F801A093F901B093FA0180919E
:1012C000FB019091FC01A091FD01B091FE010196FE
:1012D000A11DB11D8093FB019093FC01A093FD0122
:1012E000B093FE01BF91AF919F918F913F912F914C
:1012F0000F900FBE0F901F9018953FB7F8948091F4
:10130000FB019091FC01A091FD01B091FE0126B579
:10131000A89B05C02F3F19F00196A11DB11D3FBF2D
:101320006627782F892F9A2F620F711D811D911DBD
:1013300042E0660F771F881F991F4A95D1F70895DD
:101340008F929F92AF92BF92CF92DF92EF92FF92D5
:101350006B017C01D2DF4B015C01C114D104E104BB
:10136000F104E1F098D1C9DF681979098A099B096C
:10137000683E73408105910580F321E0C21AD108CF
:10138000E108F10888EE880E83E0981EA11CB11CCC
:10139000C114D104E104F10431F7DFCFFF90EF90E5
:1013A000DF90CF90BF90AF909F908F9008957894EA
:1013B00084B5826084BD84B5816084BD85B582605A
:1013C00085BD85B5816085BDEEE6F0E080818160F8
:1013D0008083E1E8F0E010828081826080838081F8
:1013E00081608083E0E8F0E0808181608083E1EBD0
:1013F000F0E0808184608083E0EBF0E080818160B8
:101400008083EAE7F0E0808184608083808182606D
:101410008083808181608083808180688083109256
:10142000C10008958E3008F08E508770209104011D
:1014300090E4299F90011124822B80937C0080915D
:101440007A00806480937A0080917A0086FDFCCFD8
:10145000809178002091790090E0922B08951F935D
:10146000CF93DF93182FEB0161E07FD0209711F429
:1014700060E004C0CF3FD10531F461E0812FDF91FE
:10148000CF911F91ABC0E12FF0E0E051FF4FE4910D
:10149000E330F9F048F4E130B9F0E230A1F584B579
:1014A000806284BDC8BD34C0E730E9F0E83019F18E
:1014B000E43049F580918000806280938000D09371
:1014C0008B00C0938A0024C084B5806884BDC7BDEA
:1014D0001FC080918000806880938000D093890035
:1014E000C093880015C08091B00080688093B000E0
:1014F000C093B3000DC08091B00080628093B000B3
:10150000C093B40005C0C038D1050CF0B6CFB0CF41
:10151000DF91CF911F910895833081F028F48130BD
:1015200099F08230A1F008958730A9F08830B9F0A1
:101530008430D1F4809180008F7D03C08091800041
:101540008F7780938000089584B58F7702C084B52B
:101550008F7D84BD08958091B0008F7703C0809106
:10156000B0008F7D8093B0000895CF93DF9390E01B
:10157000FC01EC5FFE4F2491FC01E85EFE4F84917C
:10158000882349F190E0880F991FFC01E05CFE4F31
:10159000A591B4918A5C9E4FFC01C591D4919FB7EF
:1015A000611108C0F8948C91209582238C938881D6
:1015B00082230AC0623051F4F8948C91322F309516
:1015C00083238C938881822B888304C0F8948C9128
:1015D000822B8C939FBFDF91CF9108950F931F9320
:1015E000CF93DF931F92CDB7DEB7282F30E0F901FC
:1015F000E051FF4F8491F901EC5FFE4F1491F90126
:10160000E85EFE4F04910023C1F0882319F069833E
:1016100083DF6981E02FF0E0EE0FFF1FEA5CFE4FF1
:10162000A591B4919FB7F8948C91611103C0109566
:10163000812301C0812B8C939FBF0F90DF91CF91AD
:101640001F910F910895CF93DF93282F30E0F90178
:10165000E051FF4F8491F901EC5FFE4FD491F90105
:10166000E85EFE4FC491CC2389F0811155DFEC2F49
:10167000F0E0EE0FFF1FE45DFE4FA591B4912C91B9
:101680002D2381E090E021F480E002C080E090E032
:10169000DF91CF9108950895CF92DF92EF92FF925C
:1016A0000F931F93CF93DF9300D0CDB7DEB76C01BC
:1016B0008B017C0184E0E80EF11CC60169837A830A
:1016C0000E946E23F80181938F01FFEFCF1ADF0A8A
:1016D00069817A81CE14DF0481F7CB010F900F90DE
:1016E000DF91CF911F910F91FF90EF90DF90CF90FE
:1016F0000895CF93DF93EC014F960E94ED1DCE012C
:1017000082960E94ED1DCE0185960E94ED1DCE01B0
:1017100088960E94ED1DCE018B96DF91CF910C949F
:10172000ED1D8F929F92AF92BF92CF92DF92EF9278
:10173000FF920F931F93CF93DF9300E010E0C62F2B
:10174000D0E0C22ED12CE12CF12C842E912CA12C96
:10175000B12C0C171D077CF4C701B601F1DD61E067
:1017600083E03CDFC501B401EBDD60E083E036DF00
:101770000F5F1F4FEECFDF91CF911F910F91FF9021
:10178000EF90DF90CF90BF90AF909F908F90089593
:10179000CF93DF9300D000D0CDB7DEB719821A8285
:1017A0001B821C8224E0629FC0011124BE016F5F76
:1017B0007F4F4E9671DF69817A818B819C810F907A
:1017C0000F900F900F90DF91CF910895CF92DF92FD
:1017D000EF92FF920F931F93CF93DF93EC01162F9D
:1017E00069017A01002349F0D3DF9B01AC01C701F5
:1017F000B6010E941D206B017C0120E030E0A901B0
:10180000C701B6010E94C02087FD11C020E030E072
:1018100044E353E4C701B6010E949C22181654F415
:10182000C12CD12C84E3E82E83E4F82E03C0C12C14
:10183000D12C76011130D9F078F0123019F1133033
:1018400059F5B701A601CE0188960E94CC1ECE861E
:10185000DF86E88AF98A20C0B701A601CE014F963B
:101860000E94CC1ECA82DB82EC82FD8215C0B701C9
:10187000A601CE0182960E94CC1ECE82DF82E8862F
:10188000F9860AC0B701A601CE0185960E94CC1E3A
:10189000CA86DB86EC86FD86DF91CF911F910F9182
:1018A000FF90EF90DF90CF9008954F925F926F92EC
:1018B0007F928F929F92AF92BF92CF92DF92EF92E0
:1018C000FF920F931F93CF93DF93EC012A013B010B
:1018D0004801590120E030E040E251E4C501B40183
:1018E0000E94C02087FD11C020E030E040EF52E4AC
:1018F000C501B4010E949C2218166CF4812C912C15
:1019000030EFA32E32E4B32E06C0812C912C40E29E
:10191000A42E41E4B42E20E030E040E251E4C701BF
:10192000B6010E94C02087FD11C020E030E04CEDE0
:1019300052E4C701B6010E949C2218166CF4C12C17
:10194000D12C9CEDE92E92E4F92E06C0C12CD12CAD
:1019500020E2E22E21E4F22EA7019601C501B40196
:101960000E941D2020E030E040E253E40E949C22CF
:1019700018161CF48FEF9FEF1CC001E0A301920129
:1019800060E0CE0123DFA501940161E0CE011EDFFE
:10199000A701960162E0CE0119DF4A825B826C8268
:1019A0007D828E829F82A886B986CA86DB86EC8677
:1019B000FD86DF91CF911F910F91FF90EF90DF9007
:1019C000CF90BF90AF909F908F907F906F905F90DF
:1019D0004F9008956F927F928F929F92AF92BF9295
:1019E000CF92DF92EF92FF920F931F93CF93DF93EB
:1019F000CDB7DEB73C0159DF01E0A501940163E0FA
:101A0000C301E4DEF30186869786A08AB18ADF915E
:101A1000CF911F910F91FF90EF90DF90CF90BF90EB
:101A2000AF909F908F907F906F9008954F925F92AC
:101A30006F927F928F929F92AF92BF92EF920F938D
:101A40001F93CF93DF93EC014A015B012801390119
:101A500020E030E0A901C501B4010E94C02087FD4B
:101A600011C020E030E046E153E4C501B4010E941A
:101A70009C22181654F4812C912C66E1A62E63E466
:101A8000B62E03C0812C912C540120E030E0A90136
:101A9000C301B2010E94C02087FD11C020E030E0E8
:101AA00040EF52E4C301B2010E949C22181654F484
:101AB000412C512C50EF652E52E4752E03C0412C61
:101AC000512C3201EE20B1F061E0CE0161DE9B01CC
:101AD000AC01C501B4010E941D204B015C0162E014
:101AE000CE0156DE9B01AC01C301B2010E941D2054
:101AF0002B013C01A3019201C501B4010E941D20EC
:101B000020E030E044E353E40E949C22181694F451
:101B100020E04AE061E0CE01DF91CF911F910F916B
:101B2000EF90BF90AF909F908F907F906F905F905D
:101B30004F90F7CDB501A401CE0182960E94CC1E34
:101B4000B301A201CE018596DF91CF911F910F9134
:101B5000EF90BF90AF909F908F907F906F905F902D
:101B60004F900C94CC1E0F931F93CF93DF9389015A
:101B700084E0689FE0011124BA01CE018A5B9F4F87
:101B80008BDDB801CE01C296DF91CF911F910F91ED
:101B900083CDAF92BF92CF92DF92EF92FF920F93DD
:101BA0001F93CF93DF93CDB7DEB728970FB6F89486
:101BB000DEBF0FBECDBF8C016B01F42EE22E1D8265
:101BC0001E821F82188619821A821B821C829E0125
:101BD0002F5F3F4FAE014B5F5F4F6F2DC4DFB601EC
:101BE000882777FD8095982F0E94622129813A816C
:101BF0004B815C810E94A7222D813E814F815885B7
:101C00000E941D205B016C01EE2059F06F2DC80170
:101C1000BFDD9B01AC01B501C6010E941D205B0127
:101C20006C01B501C60128960FB6F894DEBF0FBE51
:101C3000CDBFDF91CF911F910F91FF90EF90DF907B
:101C4000CF90BF90AF900895BF92CF92DF92EF9266
:101C5000FF920F931F93CF93DF93EC01162F042F66
:101C600075E0B72EC12CD12C7601113079F048F0F7
:101C7000123089F01330F1F483E0D4DB202F43E0FD
:101C80000EC082E0CFDB202F40E009C080E0CADB3D
:101C9000202F41E004C081E0C5DB202F42E0BC01E1
:101CA000CE0177DF9B01AC01C701B6010E941D2068
:101CB0006B017C016AE070E080E090E041DBBA9467
:101CC000A1F620E030E040EA50E4C701B6010E94EE
:101CD000C720DF91CF911F910F91FF90EF90DF9080
:101CE000CF90BF90089540E0AFCFCF92DF92EF92B8
:101CF000FF920F931F93CF93DF9300D0CDB7DEB742
:101D00008C018BE090E04A8369830E946E2391E00E
:101D10004A816981803809F090E0411124C066232E
:101D2000F9F0992309F499C082E07CDBC3970CF4A5
:101D300094C060E0C801D7DF6B017C016BE070E00C
:101D40008EE192E00E94861EB701A6018EE192E02C
:101D50000E94CC1EF801C282D382E482F582B2C016
:101D60008EE192E075C0413029F5662301F1992397
:101D700009F480C080E056DBC3970CF47BC061E0BF
:101D80008FEF91E0B0DF6B017C016DE070E081E2EC
:101D900092E00E94861EB701A60181E292E00E94B5
:101DA000CC1EF801C682D782E086F1868BC081E224
:101DB00092E04EC0423029F5662301F1992309F4DF
:101DC00066C081E02FDBC3970CF461C062E08FEF47
:101DD00091E089DF6B017C016CE070E084E292E0CD
:101DE0000E94861EB701A60184E292E00E94CC1EEA
:101DF000F801C286D386E486F58664C084E292E068
:101E000027C0433041F5662309F1992309F44CC0FA
:101E100083E008DB853691050CF446C063E08FEF64
:101E200091E061DF6B017C016AE070E087E292E0A3
:101E30000E94861EB701A60187E292E00E94CC1E96
:101E4000F801C686D786E08AF18A3CC087E292E034
:101E50000E948B1E37C080E036C06BE070E08EE1E0
:101E600092E00E94861E40E050E064EB72E48EE156
:101E700092E026C06DE070E081E292E00E94861E52
:101E800040E050E068EC72E481E292E019C06CE05E
:101E900070E084E292E00E94861E40E050E060E73D
:101EA00072E484E292E00CC06AE070E087E292E0C3
:101EB0000E94861E40E050E064EB72E487E292E00C
:101EC0000E94CC1E81E00F900F90DF91CF911F9167
:101ED0000F91FF90EF90DF90CF900895CF93DF9315
:101EE000EC018AE090E00E946E23803829F02AE01D
:101EF0004AE062E3CE0115DC40E061E0CE01F5DEB0
:101F000041E061E0CE01F1DE42E061E0CE01EDDED4
:101F100043E061E0CE01DF91CF91E7CE2F923F9277
:101F20004F925F926F927F928F929F92AF92BF92E9
:101F3000CF92DF92EF92FF920F931F93CF93DF9395
:101F4000CDB7DEB766970FB6F894DEBF0FBECDBF34
:101F50009E8B8D8B6A017B01280139011D821E82B7
:101F60001F82188619821A821B821C828DE090E0E3
:101F70000E946E23803869F080E090E0A0E2B1EC2E
:101F80008D839E83AF83B88789839A83AB83BC8319
:101F90000CC0BE016B5F7F4F84E190E07DDBBE0132
:101FA0006F5F7F4F88E190E077DB20E030E0A901B0
:101FB000C701B6010E94C02087FD17C020E030E0B5
:101FC00043E453E4C701B6010E949C22181694F022
:101FD00020E030E048E852E4C701B6010E941D202D
:101FE00069877A878B879C870DC080E090E0A8E89E
:101FF000B2E404C080E090E8A3E8B3E489879A875C
:10200000AB87BC8720E030E046E153ECC301B2016E
:102010000E94C02087FD11C020E030E040E253E480
:10202000C301B2010E949C2218166CF4412C512C61
:10203000F0E26F2EF3E47F2E06C0412C512CE6E136
:102040006E2EE3EC7E2E29853A854B855C85CA0190
:10205000B9010E94A7226B017C01A3019201C30177
:10206000B2010E94A7229B01AC01C701B6010E94E8
:102070001D206B017C0120E030E047E655E40E9422
:102080001D204B015C0120E030E048EC57E4C70123
:10209000B6010E94A7226D877E878F87988BA50146
:1020A0009401C501B4010E94A7229B01AC016D857A
:1020B0007E858F8598890E941C200E941423698B3D
:1020C0007A8B8B8B9C8BA7019601C701B6010E946E
:1020D0001D206D877E878F87988BA5019401698568
:1020E0007A858B859C850E94A7224B015C012989FA
:1020F0003A894B895C89C301B2010E94A7229B01E6
:10210000AC01C501B4010E941D204B015C0120E01F
:1021100030E040E253E46D857E858F8598890E948A
:10212000A7229B01AC01C501B4010E94C7200E94F7
:102130000E20698B7A8B8B8B9C8B20E030E047E6FE
:1021400055E4C701B6010E941C204B015C0120E050
:1021500030E24BEA57E4C701B6010E94A7226B01A7
:102160007C01A5019401C501B4010E94A7229B0135
:10217000AC01C701B6010E941C200E9414236B0110
:102180007C01A501940169857A858B859C850E94D7
:10219000A7224B015C01A7019601C301B2010E9475
:1021A000A7229B01AC01C501B4010E941C206B0158
:1021B0007C0120E030E044E153E46D857E858F852D
:1021C00098890E94A7229B01AC01C701B6010E9419
:1021D000C7200E940E204B015C0121EE3EE245E645
:1021E00052E469897A898B899C890E94A722298176
:1021F0003A814B815C810E941D2020E030E040E864
:1022000050E40E941C200E942F2169877A878B87C7
:102210009C87CD80DE80EF80F88421EE3EE245E6AB
:1022200052E4C501B4010E94A722A70196010E94B1
:102230001D2020E030E040E851E40E941D200E9473
:102240002F211B01882777FD8095982F0E946221FE
:102250004B015C0120E030E040EA50E4C701B601E8
:102260000E941D202B013C019B01AC01C501B40162
:102270000E94C02087FF03C0C301B20114C020E048
:1022800030E041E153E4C701B6010E941D206B011B
:102290007C019B01AC01C501B4010E949C2218166F
:1022A0002CF4C701B6010E942F211B01A985BA8514
:1022B000BD01882777FD8095982F0E9462214B01F0
:1022C0005C01B101882777FD8095982F0E946221DB
:1022D000AB01BC01EE24E394950184018D899E89B4
:1022E000A5DB66960FB6F894DEBF0FBECDBFDF91BB
:1022F000CF911F910F91FF90EF90DF90CF90BF9003
:10230000AF909F908F907F906F905F904F903F9095
:102310002F9008952F923F924F925F926F927F92EB
:102320008F929F92AF92BF92CF92DF92EF92FF92E5
:102330000F931F93CF93DF93CDB7DEB728970FB6D8
:10234000F894DEBF0FBECDBF1C014D835E836F834B
:102350007887C901B80126EE3EE245E652E40E94C4
:10236000C7204B015C010E94C4202B013C0126EEDA
:102370003EE245E652E4C701B6010E94C7206B0168
:102380007C010E94C42069837A838B839C8323E32E
:1023900033E34DE651E4C301B2010E94A7222EEEC1
:1023A0003CE747E050E40E941D202B013C0126EF52
:1023B00038E240E851E469817A818B819C810E94F6
:1023C000A7229B01AC01C301B2010E941D206983B9
:1023D0007A838B839C8326EE3EE245E652E46D8150
:1023E0007E818F8198850E94C7202B013C010E942D
:1023F000C420905829813A814B815C810E94A72298
:10240000F101628B738B848B958B20E030E0A90106
:10241000C301B2010E949C22181624F0C301B2012C
:10242000905802C0C301B2010E940A23905829812A
:102430003A814B815C810E94A722F101668B778BE8
:10244000808F918F20E030E0A901C501B4010E9486
:102450009C22181624F0C501B401905802C0C50191
:10246000B4010E940A2323E333E34DE651E40E94C2
:10247000A72226E83BEE43E351E40E941D204B01D6
:102480005C0120E030E0A901C701B6010E949C2256
:10249000181624F0C701B601905802C0C701B60152
:1024A0000E940A2326EF38E240E851E40E94A72266
:1024B0009B01AC01C501B4010E941C20F101628F97
:1024C000738F848F958F28960FB6F894DEBF0FBE5A
:1024D000CDBFDF91CF911F910F91FF90EF90DF90D3
:1024E000CF90BF90AF909F908F907F906F905F90B4
:1024F0004F903F902F9008954F925F926F927F92EE
:102500008F929F92AF92BF92CF92DF92EF92FF9203
:102510000F931F93CF93DF93EC0182E00E94120A86
:1025200020E040E0BC018FEF91E033DB4B015C0128
:1025300080E00E94120A20E041E0BC018FEF91E0B0
:1025400028DB2B013C0181E00E94120A20E042E0DE
:10255000BC018FEF91E01DDB6B017C0193018201D7
:10256000B501A401CE01D6DEDF91CF911F910F916D
:10257000FF90EF90DF90CF90BF90AF909F908F90A3
:102580007F906F905F904F9008952F923F924F925F
:102590005F926F927F928F929F92AF92BF92CF92F3
:1025A000DF92EF92FF920F931F93CF93DF93CDB7FC
:1025B000DEB768970FB6F894DEBF0FBECDBF5C01E3
:1025C0002A013B01C901B80117011C2DA301920189
:1025D0000E941C2069837A838B839C83D5010D9094
:1025E000BC91A02DBA87A98700E0CD01A0E0B0E0A2
:1025F0008D839E83AF83B88789819A81AB81BC81AB
:10260000B0588F87988BA98BBA8BA02EB12CE985F7
:10261000FA85AE16BF0608F07DC1123009F467C016
:1026200080F5112309F40AC1113009F071C1450187
:10263000880C991C880C991C820C931CB501882766
:1026400077FD8095982F0E9462219B01AC016981E2
:102650007A818B819C810E94A7226B017C016D8114
:102660007E818F8198850E9460219B01AC01C7010A
:10267000B6010E94C720A30192010E941D20D4012F
:1026800042C1133009F499C0143009F041C1602FE0
:1026900070E080E090E00E9460216B017C016D8120
:1026A0007E818F8198850E9460219B01AC01C701CA
:1026B000B6010E94C7206B017C01C501880F991FDC
:1026C000880F991F820D931D9C878B87A701960108
:1026D0006F85788989899A890E94A7224B015C01BC
:1026E00020E030E040E050E4C701B60198C0B501F9
:1026F000882777FD8095982F0E9462216B017C01CD
:102700006D817E818F8198850E94602120E030E07C
:1027100040E05FE30E94A7229B01AC01C701B60124
:102720000E94C7206B017C0120E030E040E85FE3BD
:102730000E94C020AA0CBB1CAA0CBB1C87FF0FC0A8
:10274000A20CB31C20E030E040E05FE369817A81B5
:102750008B819C810E94A722A701960150C020E096
:1027600030E040E85FE3C701B6010E941C206B0126
:102770007C01C1018A0D9B1D9C878B8720E030E086
:1027800040E05FE36F85788989899A890E94A72252
:102790004B015C0120E030E040E050E4C701B601AD
:1027A0000E941C209B01AC01C701B6010E94A72218
:1027B00020E030E040E85FE332C0602F70E080E06E
:1027C00090E00E9460216B017C016D817E818F8190
:1027D00098850E9460219B01AC01C701B6010E944F
:1027E000C7206B017C01AA0CBB1CAA0CBB1CA20C51
:1027F000B31CA701960169817A818B819C810E941B
:10280000A722A70196010E94A722A30192010E947C
:102810001D20F501608371838283938379C00E94B8
:102820001C209B01AC01C501B4010E94A722A30199
:1028300092010E941D20AB85BC8565C0602F70E0B1
:1028400080E090E00E9460216B017C016D817E81BF
:102850008F8198850E9460219B01AC01C701B60160
:102860000E94C7206B017C019B01AC010E94A72242
:102870006B877C878D879E87F501EE0FFF1FEE0F1C
:10288000FF1FE20DF31DF88FEF8B20E030E040E4F6
:1028900050E469817A818B819C810E94A7222B85DB
:1028A0003C854D855E850E94A7229B01AC01C3013A
:1028B000B2010E941D204B015C0120E030E040E0AD
:1028C00050EC69817A818B819C810E94A7226B8B5D
:1028D0007C8B8D8B9E8BA70196016B857C858D856E
:1028E0009E850E94A7229B01AC016B897C898D8902
:1028F0009E890E94A7229B01AC01C501B4010E94E0
:102900001D20AF89B88D6D937D938D939C93139704
:102910000F5F7BCE68960FB6F894DEBF0FBECDBFBB
:10292000DF91CF911F910F91FF90EF90DF90CF90AB
:10293000BF90AF909F908F907F906F905F904F90DF
:102940003F902F9008954F925F926F927F928F9257
:102950009F92AF92BF92CF92DF92EF92FF920F932E
:102960001F93CF93DF9300D000D0CDB7DEB72A01FD
:102970003B01C901B80126EE3EE245E652E40E9461
:10298000C7200E94C42069837A838B839C8326EEB0
:102990003EE245E652E4C701B6010E94C7200E940C
:1029A000C4204B015C0123E333E34DE651E469812C
:1029B0007A818B819C810E94A7222EEE3CE747E022
:1029C00050E40E941D206B017C0126EF38E240E8B4
:1029D00051E4C501B4010E94A7229B01AC01C701CB
:1029E000B6010E941D204B015C0126EE3EE245E649
:1029F00052E4C301B2010E94C7206B017C0120E0B8
:102A000030E0A9010E949C22181624F0C701B601EB
:102A1000905802C0C701B6010E940A239058A50130
:102A200094010E94A7220F900F900F900F90DF91BA
:102A3000CF911F910F91FF90EF90DF90CF90BF90BB
:102A4000AF909F908F907F906F905F904F90089580
:102A50002F923F924F925F926F927F928F929F92AE
:102A6000AF92BF92CF92DF92EF92FF920F931F939C
:102A7000CF93DF93CDB7DEB768970FB6F894DEBF7C
:102A80000FBECDBF988F8F8B49835A836B837C8316
:102A90000F83188729873A8715019E828D822CE53E
:102AA0003FE844EC51E4C701B6010E949C2218168D
:102AB0009CF028E939E941E550ECC701B6010E94D4
:102AC000C02087FF11C058E9C52E59E9D52E51E520
:102AD000E52E50ECF52E08C06CE5C62E6FE8D62E1C
:102AE00064ECE62E61E4F62E2EEE3CE747E050E47F
:102AF0006F81788589859A8590580E941C2023E3F0
:102B000033E34DE651E40E94C7204B015C0126E807
:102B10003BEE43E351E4C701B6010E941C2023E3CE
:102B200033E34DE651E40E94C7202B013C01A5018F
:102B30009401C501B4010E94A7226F87788B898B0D
:102B40009A8BA3019201C301B2010E94A7226B8755
:102B50007C878D879E872F85388949895A890E946D
:102B60001D200E9414236B8B7C8B8D8B9E8B2AE007
:102B700037ED43EA5BE369817A818B819C810E9416
:102B8000C02018160CF4B0C02AE037ED43EA5BEB26
:102B900069817A818B819C810E949C2287FDA4C0DF
:102BA00080E090E0A4EBB2E4F10180839183A28302
:102BB000B38320E030E0A901C301B2010E94C0202C
:102BC0008823C9F0C501B4019058A30192010E9465
:102BD000C7200E94982026EE3EE245E652E40E947D
:102BE000A7224B015C0120E030E0A9010E949C2259
:102BF00018168CF406C0812C912C44EBA42E42E4D0
:102C0000B42E20E030E044E353E4C501B4010E9457
:102C10001C204B015C012F85388949895A8960E065
:102C200070E080E89FE30E941C202B853C854D8549
:102C30005E850E941C2024E937E745E95FE30E9496
:102C40001C2026E531E54AE050E40E94C7202B898C
:102C50003C894D895E890E94C7200E94812026EE12
:102C60003EE245E652E40E94A722A50194010E949B
:102C70001C204B015C0120E030E0A9010E94C02033
:102C8000EDA5FEA587FD05C080829182A282B38258
:102C900004C0108211821282138226EE3EE245E6C3
:102CA00052E4EDA5FEA560817181828193810E942D
:102CB000C7200E940A2326EF38E240E851E40E9430
:102CC000A7229B01AC01C701B6010E941D2026E886
:102CD0003BEE43E351E40E941C2023E333E34DE643
:102CE00051E40E94C7202AC129813A814B815C812D
:102CF0006F81788589859A850E94C7204B015C0188
:102D00000E94982026EE3EE245E652E40E94A72269
:102D10006B017C0120E030E0A901C501B4010E94F3
:102D2000C02087FD06C0F101C082D182E282F38219
:102D30000DC020E030E044E353E4C701B6010E9437
:102D40001D20F101608371838283938320E030E052
:102D5000A9016F81788589859A850E94C02081119B
:102D60001AC020E030E0A90169817A818B819C81C1
:102D70000E949C22181654F480E090E0A4E3B3E48F
:102D8000F10180839183A283B38305C0F101108296
:102D900011821282138226EE3EE245E652E4F101F0
:102DA00060817181828193810E94C7200E94C4202A
:102DB0009B01AC0169817A818B819C8190580E9432
:102DC000C7202EEE3CE747E050E40E941C2023E39E
:102DD00033E34DE651E40E94C7204B015C0120E043
:102DE00030E0A901C301B2010E94C0208823C9F0CC
:102DF000A3019201C501B40190580E94C7200E940E
:102E0000982026EE3EE245E652E40E94A7226B019E
:102E10007C0120E030E0A9010E949C2218168CF46D
:102E200006C0C12CD12C34EBE32E32E4F32E20E08B
:102E300030E044E353E4C701B6010E941C206B015B
:102E40007C01A5019401C501B4010E94A7229B0148
:102E5000AC016B857C858D859E850E941D204B0174
:102E60005C010E94142369837A838B839C8324E909
:102E700037E745E95FE3C501B4010E941D2020E06A
:102E800030E040E85FE30E941C20905826E531E5E1
:102E90004AE050E40E94C72029813A814B815C813D
:102EA0000E94C7200E94812026EE3EE245E652E4C1
:102EB0000E94A722A70196010E941C20EDA5FEA555
:102EC000608371838283938320E030E0A901F10164
:102ED00060817181828193810E94C02087FF05C03B
:102EE000F101108211821282138226EE3EE245E643
:102EF00052E4EDA5FEA560817181828193810E94DB
:102F0000C7206B017C0120E030E0A9010E949C22D7
:102F1000181624F0C701B601905802C0C701B601C7
:102F20000E940A2326E531E54AE85FE30E94A722D2
:102F30009B01AC01C301B2010E941D200E948120AF
:102F400026EE3EE245E652E40E94A722ED81FE8194
:102F50006083718382839383F101C080D180E2809A
:102F6000F38020E030E0A901C701B6010E949C2255
:102F7000181624F0F7FAF094F7F8F094F101C082F3
:102F8000D182E282F382ED81FE8180809180A280F5
:102F9000B38020E030E0A901C501B4010E949C2269
:102FA000181624F0B7FAB094B7F8B094ED81FE810A
:102FB00080829182A282B382EDA5FEA5C080D180DD
:102FC000E280F38020E030E0A901C701B6010E9451
:102FD000C02087FD31C0F101408151816281738140
:102FE000950184018F89988DAEDC6B017C012DECFD
:102FF0003CEC4CEC5DE36F81788589859A850E9475
:103000001D209B01AC01C701B6010E949C2218162D
:103010000CF48BC02DEC3CEC4CEC5DE36F817885BF
:1030200089859A850E941C209B01AC01C701B601CD
:103030000E94C02087FD79C0F101C080D180E2806C
:10304000F380A7019601C701B6010E9455238111A3
:103050007AC0E894F7F82FEF3FEF4FE75FE7C7013B
:10306000B6010E94552381110BC02FEF3FEF4FE7B0
:103070005FE7C701B6010E94C02018160CF463C0B8
:10308000ED81FE81C080D180E280F380A7019601AE
:10309000C701B6010E945523811160C0E894F7F87A
:1030A0002FEF3FEF4FE75FE7C701B6010E945523BF
:1030B00081110BC02FEF3FEF4FE75FE7C701B6016C
:1030C0000E94C02018160CF449C0EDA5FEA5C080D2
:1030D000D180E280F380A7019601C701B6010E946A
:1030E0005523811147C046015701E894B7F82FEFE7
:1030F0003FEF4FE75FE7C501B4010E9455238111FF
:103100000AC02FEF3FEF4FE75FE7C501B4010E9410
:10311000C02018167CF120E030E0A901C701B601FB
:103120000E94C02087FF31C025C0A501940160E046
:1031300070E084E393E480D7ED81FE816083718346
:103140008283938379CF60E08FEF91E00E94730ECA
:10315000F101608371838283938392CF61E08FEF6B
:1031600091E00E94730EED81FE8160837183828302
:103170009383ABCF62E08FEF91E00E94730EEDA5D9
:10318000FEA5608371838283938368960FB6F8945B
:10319000DEBF0FBECDBFDF91CF911F910F91FF908A
:1031A000EF90DF90CF90BF90AF909F908F907F90E7
:1031B0006F905F904F903F902F9008952F923F9285
:1031C0004F925F926F927F928F929F92AF92BF9237
:1031D000CF92DF92EF92FF920F931F93CF93DF93E3
:1031E000CDB7DEB7C454D1090FB6F894DEBF0FBE19
:1031F000CDBF1C012A013B010C8F1D8F2E8F3F8FED
:10320000CAA6DBA6ECA6FDA68AA29BA2ACA2BDA282
:103210002DB73EB725963FAF2EAF25978BE090E0B8
:103220000E946E23803849F02AE04AE062E3C1013F
:103230000E94910B8FEF9FEFA1C3A3019201C301E5
:10324000B2010E94A7226B017C012C8D3D8D4E8D19
:103250005F8DCA01B9010E94A7229B01AC01C70181
:10326000B601EBD60E9414236B017C0120E030E014
:1032700040E052E40E949C221816ECF4A70196014B
:1032800060E070E080E092E482D76B017C019B01FA
:10329000AC01C301B2010E94A7222B013C01A7018E
:1032A00096016C8D7D8D8E8D9F8D0E94A7226C8FD7
:1032B0007D8F8E8F9F8FD1011A96CD90DD90ED90EE
:1032C000FC901D9716960D911D912D913C9119978B
:1032D00012964D915D916D917C911597C1011AD80F
:1032E000D10152968D919D910D90BC91A02D8EABE8
:1032F0009FABA8AFB9AFD10156968D919D910D901E
:10330000BC91A02D8AAF9BAFACAFBDAFD1015A9697
:103310008D919D910D90BC91A02D22968CAF9DAF6B
:10332000AEAFBFAF22976A96BFAD6A97B170BEA32A
:103330001FA2EEA1FFA1BF01882777FD8095982FDE
:10334000C1D76B017C019B01AC016EA97FA988AD3F
:1033500099AD0E94A722A30192016FD66EA37FA30D
:1033600088A799A7A70196016AAD7BAD8CAD9DADED
:103370000E94A7222C8D3D8D4E8D5F8D5ED62B0138
:103380003C01A701960122966CAD7DAD8EAD9FAD3F
:1033900022970E94A7222AA53BA54CA55DA54DD644
:1033A0006C8F7D8F8E8F9F8FCE010D969F938F9305
:1033B0009E012F5E3F4F490108965C01CC8CDD8C4D
:1033C000EE8CFF8C930182014EA15FA168A579A5C7
:1033D000C1013EDB8D899E89AF89B88D8AA79BA7E5
:1033E000ACA7BDA7D10112968D919D910D90BC9176
:1033F000A02D8EA79FA7A8ABB9AB9C01AD016AA574
:103400007BA58CA59DA518D66B017C010F900F9014
:1034100020E030E0A9010E949C2218161CF4C7018C
:10342000B60103C0C701B60190581ED78B01F10148
:10343000268137814085518569897A898B899C8964
:10344000FBD54B015C0120E030E0A9010E949C22E9
:1034500018161CF4C501B40103C0C501B40190588D
:1034600003D76CAB23967FAF2397D1011A962D918A
:103470003D914D915C911D976D857E858F859889D5
:10348000DBD54B015C0120E030E0A9010E949C22C9
:1034900018161CF4C501B40103C0C501B40190584D
:1034A000E3D68CA923969FAD23978017910708F444
:1034B000C8018C018617970708F48B0101351105A7
:1034C00010F000E510E0F101118300836A96FFAD72
:1034D0006A97F1FF0CC0D1011E962D913D914D913F
:1034E0005C9151976AA17BA18CA19DA111C06A96A4
:1034F000BFAD6A97B2FF11C0F101268537854089BB
:1035000051896AA17BA18CA19DA197D5A7019601A4
:1035100094D56AA37BA38CA39DA320E030E0A901EE
:103520006E966CAD7DAD8EAD9FAD6E970E949C2268
:1035300018160CF007C26F96FFAD6F97F13009F0C7
:10354000FBC02DB73EB73FA32EA3000F111F000FE6
:10355000111F8DB79EB7801B910B0FB6F8949EBFBD
:103560000FBE8DBFADB7BEB711963D01EDB7FEB72B
:10357000E01BF10B0FB6F894FEBF0FBEEDBF2DB7E9
:103580003EB72F5F3F4F3D8F2C8F8DB79EB7801B6F
:10359000910B0FB6F8949EBF0FBE8DBFADB7BEB7EF
:1035A00011962D01EDB7FEB7E01BF10B0FB6F894A5
:1035B000FEBF0FBEEDBF2DB73EB72F5F3F4F39A304
:1035C00028A3A096CFACA09773010AA51BA52CA594
:1035D0003DA54EA55FA568A979A9C1010E94C512A4
:1035E00009891A892B893C89D10116964D915D91E3
:1035F0006D917C911997A096CFACA097EC8CFD8C27
:10360000C1010E94C5120D851E852F853889F101E3
:103610004285538564857585A096CFACA0977201CD
:10362000C1010E94C512D1011E964D915D916D910F
:103630007C915197A096CFACA097E8A0F9A00AA1E1
:103640001BA12CA13DA1C1010E94C5121B8E2B8D77
:10365000822F90E0D1012D913C918217930708F0C1
:1036600063C0880F991F880F991FA196BFADA197BE
:10367000BB2311F1E8A1F9A1E80FF91F8080918027
:10368000A280B380F201E80FF91FC080D180E280F0
:10369000F380EC8DFD8DE80FF91F008111812281EF
:1036A0003381F301E80FF91F4081518162817381F9
:1036B000C1010E94EA0C19C0F201E80FF91FC08095
:1036C000D180E280F380EC8DFD8DE80FF91F008141
:1036D000118122813381F301E80FF91F408151816B
:1036E00062817381C1010E94550C20E030E04AE7FD
:1036F00054E46E966CAD7DAD8EAD9FAD6E9727D7C1
:103700006B017C01F1016081718180E090E0D8D58E
:103710009B01AC01C701B6013AD5A6D50E94A0090C
:10372000FB8DFF5FFB8F93CFEEA1FFA10FB6F89447
:10373000FEBF0FBEEDBF06C16F96FFAD6F97F111D3
:1037400001C12DB73EB73DAB2CAB000F111F000FD1
:10375000111F8DB79EB7801B910B0FB6F8949EBFBB
:103760000FBE8DBFADB7BEB71196B9A3A8A3EDB775
:10377000FEB7E01BF10B0FB6F894FEBF0FBEEDBF16
:103780002DB73EB72F5F3F4F3BA72AA78DB79EB7F8
:10379000801B910B0FB6F8949EBF0FBE8DBFADB7C7
:1037A000BEB71196BFA7AEA7EDB7FEB7E01BF10BF2
:1037B0000FB6F894FEBF0FBEEDBF2DB73EB72F5F1B
:1037C0003F4F3BAB2AABA096CFACA097E8A0F9A0A7
:1037D0000EA11FA128A539A54EA95FA968AD79AD95
:1037E000C1010E94C512A096CFACA097EAA4FBA489
:1037F000930182014AAD5BAD6CAD7DADC1010E940C
:10380000C512A096CFACA097EEA4FFA40C8D1D8D81
:103810002E8D3F8D22964CAD5DAD6EAD7FAD229766
:10382000C1010E94C512D1011E964D915D916D910D
:103830007C915197A096CFACA097EAA8FBA80AA1CB
:103840001BA12CA13DA1C1010E94C512512CFE015A
:103850003196FA8FE98F652C712CF101808191816D
:103860006816790608F067C0660C771C660C771C32
:10387000EEA5FFA5E60DF71DC080D180E280F380A4
:10388000EAA5FBA5E60DF71D008111812281338198
:10389000E8A1F9A1E60DF71D408151816281738194
:1038A000FA8DFF93898D8F93DE0115964D01FE01F0
:1038B00039965F01C101CCD80F900F90C980DA8092
:1038C000EB80FC800D811E812F81388549855A85CA
:1038D0006B857C85A196FFADA197FF2361F0EAA9D6
:1038E000FBA9E60DF71D80809180A280B380C10105
:1038F0000E94EA0C03C0C1010E94550C20E030E098
:103900004AE754E46E966CAD7DAD8EAD9FAD6E977B
:103910001ED66B017C01D1016D917C9180E090E01D
:10392000CFD49B01AC01C701B60131D49DD40E9414
:10393000A009539490CF2CA93DA90FB6F8943EBF8F
:103940000FBE2DBF4D895E896F89788D09891A89CF
:103950002B893C89CD84DE84EF84F888A1968FADD5
:10396000A197882341F08AA09BA0ACA0BDA0C10173
:103970000E94EA0C03C0C1010E94550C2596AEAD11
:10398000BFAD25970FB6F894BEBF0FBEADBFCC5BE1
:10399000DF4F0FB6F894DEBF0FBECDBFDF91CF91E2
:1039A0001F910F91FF90EF90DF90CF90BF90AF905D
:1039B0009F908F907F906F905F904F903F902F904F
:1039C0000895CF93DF93EC0161E089E00E94B50A8E
:1039D00060E089E00E94EE0A81E08E8FDF91CF9156
:1039E0000895CF93DF93EC018E8D882349F061E039
:1039F00089E00E94B50A61E089E00E94EE0A1E8E0D
:103A0000DF91CF91089561E086E00E94B50A61E000
:103A100085E00E94B50A60E085E00E94EE0A61E060
:103A200086E00C94EE0A61E086E00E94B50A61E04F
:103A300085E00E94B50A61E085E00E94EE0A60E040
:103A400086E00E94EE0A62E370E080E090E00E946F
:103A5000A00960E085E00C94EE0A8FEF91E00C94F1
:103A6000790B1F920F920FB60F9211242F933F9351
:103A70004F935F936F937F938F939F93AF93BF9376
:103A8000EF93FF9380912E0287FF05C0109285006F
:103A9000109284001AC020912E02332727FD309502
:103AA00080912D0290E0281739077CF480912E0236
:103AB000992787FD9095FC01EE0FFF1FE80FF91F76
:103AC000E15DFD4F808186FD15C080912E028F5FE4
:103AD00080932E0220912E02332727FD309580916E
:103AE0002D0290E028173907BCF480912E028C300B
:103AF0005CF112C080912E02992787FD9095FC0100
:103B0000EE0FFF1FE80FF91FE15DFD4F808160E0C0
:103B10008F730E94EE0AD9CF809184009091850026
:103B2000049680349C4918F480E49CE905C0809197
:103B3000840090918500049690938900809388007A
:103B40008FEF80932E0238C0209184003091850041
:103B500080912E02992787FD9095FC01EE0FFF1FA3
:103B6000E80FF91FE15DFD4F81819281820F931F64
:103B7000909389008093880080912E02992787FD79
:103B80009095FC01EE0FFF1FE80FF91FE15DFD4F5F
:103B9000808186FF11C080912E02992787FD909524
:103BA000FC01EE0FFF1FE80FF91FE15DFD4F808163
:103BB00061E08F730E94EE0AFF91EF91BF91AF9188
:103BC0009F918F917F916F915F914F913F912F9135
:103BD0000F900FBE0F901F90189520912D022C3042
:103BE000A0F431E0320F30932D02FC012083822FAC
:103BF00090E0FC01EE0FFF1FE80FF91FE15DFD4FA4
:103C000088EB9BE09283818308952FEFFC01208352
:103C10000895DF92EF92FF920F931F93CF93DF935C
:103C2000EC01D62E7A01890188818C3008F065C0BC
:103C300061E08D2D0E94B50A8881A82FB0E0FD01BA
:103C4000EE0FFF1FEA0FFB1FE15DFD4F2D2D2F73C0
:103C50009081907C922B908364EF71E06E197F09C4
:103C600077FF02C06D5F7F4F759567957595679576
:103C7000698344EC59E0401B510B57FF02C04D5F74
:103C80005F4F55954795559547954A836CE05DD1B3
:103C90009CE0899FB001112420E030E0A901460F8B
:103CA000571FFA01EE0FFF1FE40FF51FE15DFD4FF7
:103CB000908196FD16C02F5F3F4F2C30310571F774
:103CC00081110FC01092800082E0809381001092D9
:103CD000850010928400B19A80916F008260809379
:103CE0006F00888190E0FC01EE0FFF1FE80FF91FC5
:103CF000E15DFD4F8081806480838881DF91CF9179
:103D00001F910F91FF90EF90DF90089524EC39E020
:103D100044EF51E07ECFFC01808190E0FC01EE0F8A
:103D2000FF1FE80FF91FE15DFD4F80818F7B8083CE
:103D30000895FC0180818C3070F591812DE730E091
:103D4000291B310997FD3395220F331F220F331F93
:103D5000621773077CF0928121E732E0291B310959
:103D600097FD3395220F331F220F331F62177307FE
:103D70000CF49B0122503109220F331F4FB7F894E6
:103D800090E0FC01EE0FFF1FE80FF91FE15DFD4F12
:103D9000328321834FBF08954F925F926F927F923B
:103DA000AF92BF92CF92DF92EF92FF920F931F9349
:103DB000CF93DF93EC012A013B0120E030E04AEF92
:103DC00053E4C301B201DCD187FF58C020E030E0EA
:103DD000A901C301B201D4D187FD10C020E030E0B9
:103DE00044E353E4C301B201A7D3181654F4412CA1
:103DF000512C34E3632E33E4732E03C0412C512C39
:103E0000320189812DE730E0281B310987FD339588
:103E1000220F331F220F331F5901CC24B7FCC0944B
:103E2000DC2C20E030E040E251E4C301B2018FD34A
:103E300016D22A8141E752E0421B510927FD5395D2
:103E4000440F551F440F551F2A01662457FC6094E8
:103E5000762C7F926F925F924F9218E0E12E17E0DE
:103E6000F12E00E010E020E030E0A9011AD02AD2C3
:103E70002B013C010F900F900F900F90C301B201E6
:103E8000EED1CE01DF91CF911F910F91FF90EF9076
:103E9000DF90CF90BF90AF907F906F905F904F90EA
:103EA00048CF4F925F926F927F92AF92BF92CF9224
:103EB000DF92EF92FF920F931F93CF93DF93CDB7D3
:103EC000DEB729013A01621B730B840B950B29891C
:103ED0003A894B895C892A193B094C095D09298B70
:103EE0003A8B4B8B5C8B9B01AC0169897A898B89FE
:103EF0009C891CD0E418F50806091709A801970148
:103F000052D02A0D3B1D4C1D5D1DCA01B901DF9128
:103F1000CF911F910F91FF90EF90DF90CF90BF90C6
:103F2000AF907F906F905F904F900895DB018F93DB
:103F30009F9355D0BF91AF91A29F800D911DA39FDC
:103F4000900DB29F900D11240895991B79E004C043
:103F5000991F961708F0961B881F7A95C9F78095C8
:103F60000895A1E21A2EAA1BBB1BFD010DC0AA1FBA
:103F7000BB1FEE1FFF1FA217B307E407F50720F0D2
:103F8000A21BB30BE40BF50B661F771F881F991F4D
:103F90001A9469F760957095809590959B01AC0196
:103FA000BD01CF010895052E97FB16F400940FD0A4
:103FB00057FD05D0D6DF07FC02D046F408C0509567
:103FC0004095309521953F4F4F4F5F4F0895909505
:103FD0008095709561957F4F8F4F9F4F08950FD0BB
:103FE000A59F900DB49F900DA49F800D911D11244D
:103FF0000895EE0FFF1F0590F491E02D0994A29F04
:10400000B001B39FC001A39F700D811D1124911DAC
:10401000B29F700D811D1124911D08959F939F776C
:104020008CD10F9000203AF49058A2EA2AED3FE09C
:1040300049E450E413D035C25058BB27AA270ED00C
:1040400030C2F9D130F0FED120F031F49F3F11F4AD
:104050001EF4B8C10EF4E095E7FBAEC1E92F43D2E0
:1040600080F3BA17620773078407950718F071F495
:104070009EF55BC20EF4E0950B2EBA2FA02D0B011E
:10408000B90190010C01CA01A0011124FF27591B9D
:1040900099F0593F50F4503E68F11A16F040A22FA3
:1040A000232F342F4427585FF3CF46953795279514
:1040B000A795F0405395C9F77EF41F16BA0B620B13
:1040C000730B840BBAF09150A1F0FF0FBB1F661F5A
:1040D000771F881FC2F70EC0BA0F621F731F841F9D
:1040E00048F4879577956795B795F7959E3F08F0C3
:1040F000B3CF9395880F08F09927EE0F9795879582
:1041000008959F939F77EEE389379E0720F4E8E6B2
:10411000F0E080D109C011D19058A2EA2AED3FE029
:1041200049EC5FE39BDFBDD10F9007FC90580895E9
:10413000DF93DD27B92FBF7740E85FE31616170638
:1041400048075B0710F4D92FFBD19F938F937F9380
:104150006F93A8D2ECE7F0E038D1A3D12F913F9133
:104160004F915F9100D2DD2349F09058A2EA2AEDE9
:104170003FE049EC5FE3D0785D2770DFDF9191C1CC
:10418000F7D008F481E0089565D1E3959BC10CD088
:1041900088C158D140F04FD130F021F45F3F19F081
:1041A0000BC15111C3C10EC19ED198F39923C9F31C
:1041B0005523B1F3951B550BBB27AA27621773072D
:1041C000840738F09F5F5F4F220F331F441FAA1FE1
:1041D000A9F333D00E2E3AF0E0E830D091505040A1
:1041E000E695001CCAF729D0FE2F27D0660F771F4F
:1041F000881FBB1F261737074807AB07B0E809F031
:10420000BB0B802DBF01FF2793585F4F2AF09E3FC5
:10421000510568F0D1C08AC15F3FECF3983EDCF3F2
:10422000869577956795B795F7959F5FC9F7880F3E
:10423000911D9695879597F90895E1E0660F771F90
:10424000881FBB1F621773078407BA0720F0621B21
:10425000730B840BBA0BEE1F88F7E095089504D01A
:104260006894B11163C1089546D188F09F5790F0CA
:10427000B92F9927B751A0F0D1F0660F771F881F8B
:10428000991F1AF0BA95C9F712C0B13081F04DD11B
:10429000B1E008954AC1672F782F8827B85F39F0B9
:1042A000B93FCCF3869577956795B395D9F73EF4EA
:1042B00090958095709561957F4F8F4F9F4F089592
:1042C000E89409C097FB3EF49095809570956195B0
:1042D0007F4F8F4F9F4F9923A9F0F92F96E9BB2766
:1042E0009395F695879577956795B795F111F8CFE2
:1042F000FAF4BB0F11F460FF1BC06F5F7F4F8F4F4D
:104300009F4F16C0882311F096E911C0772321F042
:104310009EE8872F762F05C0662371F096E8862FDA
:1043200070E060E02AF09A95660F771F881FDAF731
:10433000880F9695879597F90895DF93CF931F93EC
:104340000F938B01EC01E9EAF0E03FD0AAD098018D
:10435000AE018B01EC0160E070E080E89FE36CDE71
:1043600063D19801AE010F911F91CF91DF91FBC0F6
:10437000990F0008550FAA0BE0E8FEEF1616170676
:10438000E807F907C0F012161306E407F50798F0DE
:10439000621B730B840B950B39F40A2661F0232BF7
:1043A000242B252B21F408950A2609F4A140A69573
:1043B0008FEF811D811D089597F99F6780E870E058
:1043C00060E008959FEF80EC0895DF93CF931F93F3
:1043D0000F93FF92EF92DF927B018C01689405C0EE
:1043E000DA2EEF01C0D0FE01E894A5912591359118
:1043F00045915591AEF3EF0131DEFE019701A80121
:10440000DA9479F7DF90EF90FF900F911F91CF91A1
:10441000DF9108959F938F937F936F93FF93EF9313
:104420009B01AC0194D0EF91FF91CFDF2F913F9191
:104430004F915F918CC000240A9416161706180637
:104440000906089500240A94121613061406050698
:104450000895B8CF50D0E8F3E894E0E0BB279F5729
:10446000F0F02AED3FE049EC06C0EE0FBB0F661FEF
:10447000771F881F28F0B23A62077307840728F075
:10448000B25A620B730B840BE3959A9572F78038DE
:1044900030F49A95BB0F661F771F881FD2F790489C
:1044A0000AC1092E0394000C11F4882352F0BB0FAB
:1044B00040F4BF2B11F460FF04C06F5F7F4F8F4F3C
:1044C0009F4F0895EF93E0FF06C0A2EA2AED3FE078
:1044D00049EC5FEBC3DDE5DF0F90039401FC9058DE
:1044E000E1EDF0E097CF57FD9058440F551F59F07C
:1044F0005F3F71F04795880F97FB991F61F09F3FD1
:1045000079F087950895121613061406551FF2CFF9
:104510004695F1DF08C0161617061806991FF1CF49
:1045200086957105610508940895E894BB27662770
:104530007727CB0197F908951BDF08F48FEF0895D3
:104540009B01AC0160E070E080E89FE320CE0BD0DF
:10455000A8CF71DF28F076DF18F0952309F02CCF73
:1045600031CF1124E3CFBFDFA0F3959FD1F3950F97
:1045700050E0551F629FF001729FBB27F00DB11DE7
:10458000639FAA27F00DB11DAA1F649F6627B00D77
:10459000A11D661F829F2227B00DA11D621F739F60
:1045A000B00DA11D621F839FA00D611D221F749F6E
:1045B0003327A00D611D231F849F600D211D822FB5
:1045C000762F6A2F11249F5750408AF0E1F08823FC
:1045D0004AF0EE0FFF1FBB1F661F771F881F915009
:1045E0005040A9F79E3F510570F0E6CE9FCF5F3F48
:1045F000ECF3983EDCF3869577956795B795F7953C
:10460000E7959F5FC1F7FE2B880F911D96958795C3
:1046100097F908959F931EDF0F9007FCEE5F52CF2E
:1046200011F40EF4CFCE45C066DFD0F39923D9F351
:10463000CEF39F57550B87FF4AD00024A0E640EAEF
:10464000900180585695979528F4805C660F771FE7
:10465000881F20F026173707480730F4621B730BBA
:10466000840B202931294A2BA695179407942025DD
:1046700031254A2758F7660F771F881F20F0261725
:104680003707480730F4620B730B840B200D311D84
:10469000411DA09581F7B901842F9158880F9695F7
:1046A000879508959B01AC0152CF62DE880B990B70
:1046B00008959F3F31F0915020F487957795679545
:1046C000B795880F911D9695879597F90895915004
:1046D0005040660F771F881FD2F70895F999FECFD3
:1046E00092BD81BDF89A992780B50895262FF99932
:1046F000FECF1FBA92BD81BD20BD0FB6F894FA9AC5
:0C470000F99A0FBE01960895F894FFCFBF
:10470C000100000001000000009607FF081A0733A3
:06471C00072507750700E8
:00000001FF
